{
  "_format": "hh-sol-artifact-1",
  "contractName": "Giveaway",
  "sourceName": "contracts/Giveaway.sol",
  "abi": [
    {
      "inputs": [
        {
          "internalType": "address",
          "name": "token",
          "type": "address"
        }
      ],
      "stateMutability": "nonpayable",
      "type": "constructor"
    },
    {
      "anonymous": false,
      "inputs": [
        {
          "indexed": false,
          "internalType": "address",
          "name": "claimer",
          "type": "address"
        }
      ],
      "name": "Claimed",
      "type": "event"
    },
    {
      "inputs": [],
      "name": "claim",
      "outputs": [],
      "stateMutability": "nonpayable",
      "type": "function"
    },
    {
      "inputs": [],
      "name": "deposited",
      "outputs": [
        {
          "internalType": "uint256",
          "name": "",
          "type": "uint256"
        }
      ],
      "stateMutability": "view",
      "type": "function"
    },
    {
      "inputs": [
        {
          "internalType": "uint256",
          "name": "amount",
          "type": "uint256"
        }
      ],
      "name": "setAmount",
      "outputs": [],
      "stateMutability": "nonpayable",
      "type": "function"
    },
    {
      "inputs": [],
      "name": "totalClaimed",
      "outputs": [
        {
          "internalType": "uint256",
          "name": "",
          "type": "uint256"
        }
      ],
      "stateMutability": "view",
      "type": "function"
    },
    {
      "inputs": [],
      "name": "withdraw",
      "outputs": [],
      "stateMutability": "nonpayable",
      "type": "function"
    }
  ],
  "bytecode": "0x608060405234801561001057600080fd5b50604051610b82380380610b82833981810160405281019061003291906100d6565b806000806101000a81548173ffffffffffffffffffffffffffffffffffffffff021916908373ffffffffffffffffffffffffffffffffffffffff16021790555033600160006101000a81548173ffffffffffffffffffffffffffffffffffffffff021916908373ffffffffffffffffffffffffffffffffffffffff160217905550600a60028190555050610148565b6000815190506100d081610131565b92915050565b6000602082840312156100e857600080fd5b60006100f6848285016100c1565b91505092915050565b600061010a82610111565b9050919050565b600073ffffffffffffffffffffffffffffffffffffffff82169050919050565b61013a816100ff565b811461014557600080fd5b50565b610a2b806101576000396000f3fe608060405234801561001057600080fd5b50600436106100575760003560e01c8063271f88b41461005c5780633ccfd60b146100785780634e71d92d14610082578063d54ad2a11461008c578063eef49ee3146100aa575b600080fd5b61007660048036038101906100719190610735565b6100c8565b005b610080610162565b005b61008a610351565b005b610094610612565b6040516100a191906108b2565b60405180910390f35b6100b261061c565b6040516100bf91906108b2565b60405180910390f35b3373ffffffffffffffffffffffffffffffffffffffff16600160009054906101000a900473ffffffffffffffffffffffffffffffffffffffff1673ffffffffffffffffffffffffffffffffffffffff1614610158576040517f08c379a000000000000000000000000000000000000000000000000000000000815260040161014f90610852565b60405180910390fd5b8060028190555050565b3373ffffffffffffffffffffffffffffffffffffffff16600160009054906101000a900473ffffffffffffffffffffffffffffffffffffffff1673ffffffffffffffffffffffffffffffffffffffff16146101f2576040517f08c379a00000000000000000000000000000000000000000000000000000000081526004016101e990610852565b60405180910390fd5b60008060009054906101000a900473ffffffffffffffffffffffffffffffffffffffff1673ffffffffffffffffffffffffffffffffffffffff166370a08231306040518263ffffffff1660e01b815260040161024e919061080e565b60206040518083038186803b15801561026657600080fd5b505afa15801561027a573d6000803e3d6000fd5b505050506040513d601f19601f8201168201806040525081019061029e919061075e565b905060008054906101000a900473ffffffffffffffffffffffffffffffffffffffff1673ffffffffffffffffffffffffffffffffffffffff1663a9059cbb33836040518363ffffffff1660e01b81526004016102fb929190610829565b602060405180830381600087803b15801561031557600080fd5b505af1158015610329573d6000803e3d6000fd5b505050506040513d601f19601f8201168201806040525081019061034d919061070c565b5050565b60001515600460003373ffffffffffffffffffffffffffffffffffffffff1673ffffffffffffffffffffffffffffffffffffffff16815260200190815260200160002060009054906101000a900460ff161515146103e4576040517f08c379a00000000000000000000000000000000000000000000000000000000081526004016103db90610872565b60405180910390fd5b60008054906101000a900473ffffffffffffffffffffffffffffffffffffffff1673ffffffffffffffffffffffffffffffffffffffff166370a08231306040518263ffffffff1660e01b815260040161043d919061080e565b60206040518083038186803b15801561045557600080fd5b505afa158015610469573d6000803e3d6000fd5b505050506040513d601f19601f8201168201806040525081019061048d919061075e565b60025411156104d1576040517f08c379a00000000000000000000000000000000000000000000000000000000081526004016104c890610892565b60405180910390fd5b60008054906101000a900473ffffffffffffffffffffffffffffffffffffffff1673ffffffffffffffffffffffffffffffffffffffff1663a9059cbb336002546040518363ffffffff1660e01b815260040161052e929190610829565b602060405180830381600087803b15801561054857600080fd5b505af115801561055c573d6000803e3d6000fd5b505050506040513d601f19601f82011682018060405250810190610580919061070c565b507fb449c24d261a59627b537c8c41c57ab559f4205c56bea745ff61c5521bece214336040516105b0919061080e565b60405180910390a16001600460003373ffffffffffffffffffffffffffffffffffffffff1673ffffffffffffffffffffffffffffffffffffffff16815260200190815260200160002060006101000a81548160ff021916908315150217905550565b6000600354905090565b60008060009054906101000a900473ffffffffffffffffffffffffffffffffffffffff1673ffffffffffffffffffffffffffffffffffffffff166370a08231306040518263ffffffff1660e01b8152600401610678919061080e565b60206040518083038186803b15801561069057600080fd5b505afa1580156106a4573d6000803e3d6000fd5b505050506040513d601f19601f820116820180604052508101906106c8919061075e565b905090565b6000815190506106dc816109c7565b92915050565b6000813590506106f1816109de565b92915050565b600081519050610706816109de565b92915050565b60006020828403121561071e57600080fd5b600061072c848285016106cd565b91505092915050565b60006020828403121561074757600080fd5b6000610755848285016106e2565b91505092915050565b60006020828403121561077057600080fd5b600061077e848285016106f7565b91505092915050565b610790816108de565b82525050565b60006107a36024836108cd565b91506107ae82610926565b604082019050919050565b60006107c66017836108cd565b91506107d182610975565b602082019050919050565b60006107e9600d836108cd565b91506107f48261099e565b602082019050919050565b6108088161091c565b82525050565b60006020820190506108236000830184610787565b92915050565b600060408201905061083e6000830185610787565b61084b60208301846107ff565b9392505050565b6000602082019050818103600083015261086b81610796565b9050919050565b6000602082019050818103600083015261088b816107b9565b9050919050565b600060208201905081810360008301526108ab816107dc565b9050919050565b60006020820190506108c760008301846107ff565b92915050565b600082825260208201905092915050565b60006108e9826108fc565b9050919050565b60008115159050919050565b600073ffffffffffffffffffffffffffffffffffffffff82169050919050565b6000819050919050565b7f74686973206d6574686f64206973206f6e6c7920616c6c6f77656420746f206f60008201527f776e657200000000000000000000000000000000000000000000000000000000602082015250565b7f596f752061726520616c726561647920636c61696d6564000000000000000000600082015250565b7f546f6b656e2072756e206f757400000000000000000000000000000000000000600082015250565b6109d0816108f0565b81146109db57600080fd5b50565b6109e78161091c565b81146109f257600080fd5b5056fea26469706673582212200df415adaf4ce7424fdda6533537bcc5fab49895682fb2765b0c478c463dfd1564736f6c63430008040033",
  "linkReferences": {},
  "deployedLinkReferences": {}
}